{
  "_format": "hh-sol-artifact-1",
  "contractName": "DStorage",
  "sourceName": "contracts/Dstorage.sol",
  "abi": [
    {
      "anonymous": false,
      "inputs": [
        {
          "indexed": false,
          "internalType": "uint256",
          "name": "fileId",
          "type": "uint256"
        },
        {
          "indexed": false,
          "internalType": "string",
          "name": "fileHash",
          "type": "string"
        },
        {
          "indexed": false,
          "internalType": "uint256",
          "name": "fileSize",
          "type": "uint256"
        },
        {
          "indexed": false,
          "internalType": "string",
          "name": "fileType",
          "type": "string"
        },
        {
          "indexed": false,
          "internalType": "string",
          "name": "fileName",
          "type": "string"
        },
        {
          "indexed": false,
          "internalType": "string",
          "name": "fileDescription",
          "type": "string"
        },
        {
          "indexed": false,
          "internalType": "uint256",
          "name": "uploadTime",
          "type": "uint256"
        },
        {
          "indexed": false,
          "internalType": "address payable",
          "name": "uploader",
          "type": "address"
        }
      ],
      "name": "FileUploaded",
      "type": "event"
    },
    {
      "inputs": [],
      "name": "fileCount",
      "outputs": [
        {
          "internalType": "uint256",
          "name": "",
          "type": "uint256"
        }
      ],
      "stateMutability": "view",
      "type": "function"
    },
    {
      "inputs": [
        {
          "internalType": "uint256",
          "name": "",
          "type": "uint256"
        }
      ],
      "name": "files",
      "outputs": [
        {
          "internalType": "uint256",
          "name": "fileId",
          "type": "uint256"
        },
        {
          "internalType": "string",
          "name": "fileHash",
          "type": "string"
        },
        {
          "internalType": "uint256",
          "name": "fileSize",
          "type": "uint256"
        },
        {
          "internalType": "string",
          "name": "fileType",
          "type": "string"
        },
        {
          "internalType": "string",
          "name": "fileName",
          "type": "string"
        },
        {
          "internalType": "string",
          "name": "fileDescription",
          "type": "string"
        },
        {
          "internalType": "uint256",
          "name": "uploadTime",
          "type": "uint256"
        },
        {
          "internalType": "address payable",
          "name": "uploader",
          "type": "address"
        }
      ],
      "stateMutability": "view",
      "type": "function"
    },
    {
      "inputs": [],
      "name": "name",
      "outputs": [
        {
          "internalType": "string",
          "name": "",
          "type": "string"
        }
      ],
      "stateMutability": "view",
      "type": "function"
    },
    {
      "inputs": [
        {
          "internalType": "string",
          "name": "_fileHash",
          "type": "string"
        },
        {
          "internalType": "uint256",
          "name": "_fileSize",
          "type": "uint256"
        },
        {
          "internalType": "string",
          "name": "_fileType",
          "type": "string"
        },
        {
          "internalType": "string",
          "name": "_fileName",
          "type": "string"
        },
        {
          "internalType": "string",
          "name": "_fileDescription",
          "type": "string"
        }
      ],
      "name": "uploadFile",
      "outputs": [],
      "stateMutability": "nonpayable",
      "type": "function"
    }
  ],
  "bytecode": "0x60c060405260086080908152674453746f7261676560c01b60a05260009061002790826100de565b50600060015534801561003957600080fd5b5061019d565b634e487b7160e01b600052604160045260246000fd5b600181811c9082168061006957607f821691505b60208210810361008957634e487b7160e01b600052602260045260246000fd5b50919050565b601f8211156100d957600081815260208120601f850160051c810160208610156100b65750805b601f850160051c820191505b818110156100d5578281556001016100c2565b5050505b505050565b81516001600160401b038111156100f7576100f761003f565b61010b816101058454610055565b8461008f565b602080601f83116001811461014057600084156101285750858301515b600019600386901b1c1916600185901b1785556100d5565b600085815260208120601f198616915b8281101561016f57888601518255948401946001909101908401610150565b508582101561018d5787850151600019600388901b60f8161c191681555b5050505050600190811b01905550565b610949806101ac6000396000f3fe608060405234801561001057600080fd5b506004361061004c5760003560e01c806306fdde0314610051578063439535191461006f578063e82d9d3314610086578063f4c714b41461009b575b600080fd5b6100596100c2565b6040516100669190610594565b60405180910390f35b61007860015481565b604051908152602001610066565b610099610094366004610651565b610150565b005b6100ae6100a9366004610708565b6102e3565b604051610066989796959493929190610721565b600080546100cf906107a3565b80601f01602080910402602001604051908101604052809291908181526020018280546100fb906107a3565b80156101485780601f1061011d57610100808354040283529160200191610148565b820191906000526020600020905b81548152906001019060200180831161012b57829003601f168201915b505050505081565b600085511161015e57600080fd5b600083511161016c57600080fd5b600081511161017a57600080fd5b600082511161018857600080fd5b3361019257600080fd5b6000841161019f57600080fd5b600180549060006101af836107dd565b909155505060408051610100810182526001805480835260208084018a81528486018a9052606085018990526080850188905260a085018790524260c08601523360e086015260009283526002909152939020825181559251919291908201906102199082610853565b5060408201516002820155606082015160038201906102389082610853565b506080820151600482019061024d9082610853565b5060a082015160058201906102629082610853565b5060c0820151600682015560e090910151600790910180546001600160a01b0319166001600160a01b039092169190911790556001546040517f6e95bbaa37a5fdec42a312e049dea2fe6160ebe659214d3409b4f91f164c2f52916102d4918890889088908890889042903390610721565b60405180910390a15050505050565b60026020526000908152604090208054600182018054919291610305906107a3565b80601f0160208091040260200160405190810160405280929190818152602001828054610331906107a3565b801561037e5780601f106103535761010080835404028352916020019161037e565b820191906000526020600020905b81548152906001019060200180831161036157829003601f168201915b505050505090806002015490806003018054610399906107a3565b80601f01602080910402602001604051908101604052809291908181526020018280546103c5906107a3565b80156104125780601f106103e757610100808354040283529160200191610412565b820191906000526020600020905b8154815290600101906020018083116103f557829003601f168201915b505050505090806004018054610427906107a3565b80601f0160208091040260200160405190810160405280929190818152602001828054610453906107a3565b80156104a05780601f10610475576101008083540402835291602001916104a0565b820191906000526020600020905b81548152906001019060200180831161048357829003601f168201915b5050505050908060050180546104b5906107a3565b80601f01602080910402602001604051908101604052809291908181526020018280546104e1906107a3565b801561052e5780601f106105035761010080835404028352916020019161052e565b820191906000526020600020905b81548152906001019060200180831161051157829003601f168201915b5050505060068301546007909301549192916001600160a01b0316905088565b6000815180845260005b8181101561057457602081850181015186830182015201610558565b506000602082860101526020601f19601f83011685010191505092915050565b6020815260006105a7602083018461054e565b9392505050565b634e487b7160e01b600052604160045260246000fd5b600082601f8301126105d557600080fd5b813567ffffffffffffffff808211156105f0576105f06105ae565b604051601f8301601f19908116603f01168101908282118183101715610618576106186105ae565b8160405283815286602085880101111561063157600080fd5b836020870160208301376000602085830101528094505050505092915050565b600080600080600060a0868803121561066957600080fd5b853567ffffffffffffffff8082111561068157600080fd5b61068d89838a016105c4565b96506020880135955060408801359150808211156106aa57600080fd5b6106b689838a016105c4565b945060608801359150808211156106cc57600080fd5b6106d889838a016105c4565b935060808801359150808211156106ee57600080fd5b506106fb888289016105c4565b9150509295509295909350565b60006020828403121561071a57600080fd5b5035919050565b60006101008a835280602084015261073b8184018b61054e565b90508860408401528281036060840152610755818961054e565b90508281036080840152610769818861054e565b905082810360a084015261077d818761054e565b60c084019590955250506001600160a01b039190911660e0909101529695505050505050565b600181811c908216806107b757607f821691505b6020821081036107d757634e487b7160e01b600052602260045260246000fd5b50919050565b6000600182016107fd57634e487b7160e01b600052601160045260246000fd5b5060010190565b601f82111561084e57600081815260208120601f850160051c8101602086101561082b5750805b601f850160051c820191505b8181101561084a57828155600101610837565b5050505b505050565b815167ffffffffffffffff81111561086d5761086d6105ae565b6108818161087b84546107a3565b84610804565b602080601f8311600181146108b6576000841561089e5750858301515b600019600386901b1c1916600185901b17855561084a565b600085815260208120601f198616915b828110156108e5578886015182559484019460019091019084016108c6565b50858210156109035787850151600019600388901b60f8161c191681555b5050505050600190811b0190555056fea2646970667358221220f64a479fe85dce88a90c5718d0759350e278d2a584a12abab13139d3842f164f64736f6c63430008120033",
  "linkReferences": {},
  "deployedLinkReferences": {}
}