{"contracts/Dstorage.sol":{"DStorage":{"abi":[{"anonymous":false,"inputs":[{"indexed":false,"internalType":"uint256","name":"fileId","type":"uint256"},{"indexed":false,"internalType":"string","name":"fileHash","type":"string"},{"indexed":false,"internalType":"uint256","name":"fileSize","type":"uint256"},{"indexed":false,"internalType":"string","name":"fileType","type":"string"},{"indexed":false,"internalType":"string","name":"fileName","type":"string"},{"indexed":false,"internalType":"string","name":"fileDescription","type":"string"},{"indexed":false,"internalType":"uint256","name":"uploadTime","type":"uint256"},{"indexed":false,"internalType":"address payable","name":"uploader","type":"address"}],"name":"FileUploaded","type":"event"},{"inputs":[],"name":"fileCount","outputs":[{"internalType":"uint256","name":"","type":"uint256"}],"stateMutability":"view","type":"function"},{"inputs":[{"internalType":"uint256","name":"","type":"uint256"}],"name":"files","outputs":[{"internalType":"uint256","name":"fileId","type":"uint256"},{"internalType":"string","name":"fileHash","type":"string"},{"internalType":"uint256","name":"fileSize","type":"uint256"},{"internalType":"string","name":"fileType","type":"string"},{"internalType":"string","name":"fileName","type":"string"},{"internalType":"string","name":"fileDescription","type":"string"},{"internalType":"uint256","name":"uploadTime","type":"uint256"},{"internalType":"address payable","name":"uploader","type":"address"}],"stateMutability":"view","type":"function"},{"inputs":[],"name":"name","outputs":[{"internalType":"string","name":"","type":"string"}],"stateMutability":"view","type":"function"},{"inputs":[{"internalType":"string","name":"_fileHash","type":"string"},{"internalType":"uint256","name":"_fileSize","type":"uint256"},{"internalType":"string","name":"_fileType","type":"string"},{"internalType":"string","name":"_fileName","type":"string"},{"internalType":"string","name":"_fileDescription","type":"string"}],"name":"uploadFile","outputs":[],"stateMutability":"nonpayable","type":"function"}],"evm":{"bytecode":{"linkReferences":{},"object":"60c060405260086080908152674453746f7261676560c01b60a05260009061002790826100de565b50600060015534801561003957600080fd5b5061019d565b634e487b7160e01b600052604160045260246000fd5b600181811c9082168061006957607f821691505b60208210810361008957634e487b7160e01b600052602260045260246000fd5b50919050565b601f8211156100d957600081815260208120601f850160051c810160208610156100b65750805b601f850160051c820191505b818110156100d5578281556001016100c2565b5050505b505050565b81516001600160401b038111156100f7576100f761003f565b61010b816101058454610055565b8461008f565b602080601f83116001811461014057600084156101285750858301515b600019600386901b1c1916600185901b1785556100d5565b600085815260208120601f198616915b8281101561016f57888601518255948401946001909101908401610150565b508582101561018d5787850151600019600388901b60f8161c191681555b5050505050600190811b01905550565b610949806101ac6000396000f3fe608060405234801561001057600080fd5b506004361061004c5760003560e01c806306fdde0314610051578063439535191461006f578063e82d9d3314610086578063f4c714b41461009b575b600080fd5b6100596100c2565b6040516100669190610594565b60405180910390f35b61007860015481565b604051908152602001610066565b610099610094366004610651565b610150565b005b6100ae6100a9366004610708565b6102e3565b604051610066989796959493929190610721565b600080546100cf906107a3565b80601f01602080910402602001604051908101604052809291908181526020018280546100fb906107a3565b80156101485780601f1061011d57610100808354040283529160200191610148565b820191906000526020600020905b81548152906001019060200180831161012b57829003601f168201915b505050505081565b600085511161015e57600080fd5b600083511161016c57600080fd5b600081511161017a57600080fd5b600082511161018857600080fd5b3361019257600080fd5b6000841161019f57600080fd5b600180549060006101af836107dd565b909155505060408051610100810182526001805480835260208084018a81528486018a9052606085018990526080850188905260a085018790524260c08601523360e086015260009283526002909152939020825181559251919291908201906102199082610853565b5060408201516002820155606082015160038201906102389082610853565b506080820151600482019061024d9082610853565b5060a082015160058201906102629082610853565b5060c0820151600682015560e090910151600790910180546001600160a01b0319166001600160a01b039092169190911790556001546040517f6e95bbaa37a5fdec42a312e049dea2fe6160ebe659214d3409b4f91f164c2f52916102d4918890889088908890889042903390610721565b60405180910390a15050505050565b60026020526000908152604090208054600182018054919291610305906107a3565b80601f0160208091040260200160405190810160405280929190818152602001828054610331906107a3565b801561037e5780601f106103535761010080835404028352916020019161037e565b820191906000526020600020905b81548152906001019060200180831161036157829003601f168201915b505050505090806002015490806003018054610399906107a3565b80601f01602080910402602001604051908101604052809291908181526020018280546103c5906107a3565b80156104125780601f106103e757610100808354040283529160200191610412565b820191906000526020600020905b8154815290600101906020018083116103f557829003601f168201915b505050505090806004018054610427906107a3565b80601f0160208091040260200160405190810160405280929190818152602001828054610453906107a3565b80156104a05780601f10610475576101008083540402835291602001916104a0565b820191906000526020600020905b81548152906001019060200180831161048357829003601f168201915b5050505050908060050180546104b5906107a3565b80601f01602080910402602001604051908101604052809291908181526020018280546104e1906107a3565b801561052e5780601f106105035761010080835404028352916020019161052e565b820191906000526020600020905b81548152906001019060200180831161051157829003601f168201915b5050505060068301546007909301549192916001600160a01b0316905088565b6000815180845260005b8181101561057457602081850181015186830182015201610558565b506000602082860101526020601f19601f83011685010191505092915050565b6020815260006105a7602083018461054e565b9392505050565b634e487b7160e01b600052604160045260246000fd5b600082601f8301126105d557600080fd5b813567ffffffffffffffff808211156105f0576105f06105ae565b604051601f8301601f19908116603f01168101908282118183101715610618576106186105ae565b8160405283815286602085880101111561063157600080fd5b836020870160208301376000602085830101528094505050505092915050565b600080600080600060a0868803121561066957600080fd5b853567ffffffffffffffff8082111561068157600080fd5b61068d89838a016105c4565b96506020880135955060408801359150808211156106aa57600080fd5b6106b689838a016105c4565b945060608801359150808211156106cc57600080fd5b6106d889838a016105c4565b935060808801359150808211156106ee57600080fd5b506106fb888289016105c4565b9150509295509295909350565b60006020828403121561071a57600080fd5b5035919050565b60006101008a835280602084015261073b8184018b61054e565b90508860408401528281036060840152610755818961054e565b90508281036080840152610769818861054e565b905082810360a084015261077d818761054e565b60c084019590955250506001600160a01b039190911660e0909101529695505050505050565b600181811c908216806107b757607f821691505b6020821081036107d757634e487b7160e01b600052602260045260246000fd5b50919050565b6000600182016107fd57634e487b7160e01b600052601160045260246000fd5b5060010190565b601f82111561084e57600081815260208120601f850160051c8101602086101561082b5750805b601f850160051c820191505b8181101561084a57828155600101610837565b5050505b505050565b815167ffffffffffffffff81111561086d5761086d6105ae565b6108818161087b84546107a3565b84610804565b602080601f8311600181146108b6576000841561089e5750858301515b600019600386901b1c1916600185901b17855561084a565b600085815260208120601f198616915b828110156108e5578886015182559484019460019091019084016108c6565b50858210156109035787850151600019600388901b60f8161c191681555b5050505050600190811b0190555056fea2646970667358221220f64a479fe85dce88a90c5718d0759350e278d2a584a12abab13139d3842f164f64736f6c63430008120033","opcodes":"PUSH1 0xC0 PUSH1 0x40 MSTORE PUSH1 0x8 PUSH1 0x80 SWAP1 DUP2 MSTORE PUSH8 0x4453746F72616765 PUSH1 0xC0 SHL PUSH1 0xA0 MSTORE PUSH1 0x0 SWAP1 PUSH2 0x27 SWAP1 DUP3 PUSH2 0xDE JUMP JUMPDEST POP PUSH1 0x0 PUSH1 0x1 SSTORE CALLVALUE DUP1 ISZERO PUSH2 0x39 JUMPI PUSH1 0x0 DUP1 REVERT JUMPDEST POP PUSH2 0x19D JUMP JUMPDEST PUSH4 0x4E487B71 PUSH1 0xE0 SHL PUSH1 0x0 MSTORE PUSH1 0x41 PUSH1 0x4 MSTORE PUSH1 0x24 PUSH1 0x0 REVERT JUMPDEST PUSH1 0x1 DUP2 DUP2 SHR SWAP1 DUP3 AND DUP1 PUSH2 0x69 JUMPI PUSH1 0x7F DUP3 AND SWAP2 POP JUMPDEST PUSH1 0x20 DUP3 LT DUP2 SUB PUSH2 0x89 JUMPI PUSH4 0x4E487B71 PUSH1 0xE0 SHL PUSH1 0x0 MSTORE PUSH1 0x22 PUSH1 0x4 MSTORE PUSH1 0x24 PUSH1 0x0 REVERT JUMPDEST POP SWAP2 SWAP1 POP JUMP JUMPDEST PUSH1 0x1F DUP3 GT ISZERO PUSH2 0xD9 JUMPI PUSH1 0x0 DUP2 DUP2 MSTORE PUSH1 0x20 DUP2 KECCAK256 PUSH1 0x1F DUP6 ADD PUSH1 0x5 SHR DUP2 ADD PUSH1 0x20 DUP7 LT ISZERO PUSH2 0xB6 JUMPI POP DUP1 JUMPDEST PUSH1 0x1F DUP6 ADD PUSH1 0x5 SHR DUP3 ADD SWAP2 POP JUMPDEST DUP2 DUP2 LT ISZERO PUSH2 0xD5 JUMPI DUP3 DUP2 SSTORE PUSH1 0x1 ADD PUSH2 0xC2 JUMP JUMPDEST POP POP POP JUMPDEST POP POP POP JUMP JUMPDEST DUP2 MLOAD PUSH1 0x1 PUSH1 0x1 PUSH1 0x40 SHL SUB DUP2 GT ISZERO PUSH2 0xF7 JUMPI PUSH2 0xF7 PUSH2 0x3F JUMP JUMPDEST PUSH2 0x10B DUP2 PUSH2 0x105 DUP5 SLOAD PUSH2 0x55 JUMP JUMPDEST DUP5 PUSH2 0x8F JUMP JUMPDEST PUSH1 0x20 DUP1 PUSH1 0x1F DUP4 GT PUSH1 0x1 DUP2 EQ PUSH2 0x140 JUMPI PUSH1 0x0 DUP5 ISZERO PUSH2 0x128 JUMPI POP DUP6 DUP4 ADD MLOAD JUMPDEST PUSH1 0x0 NOT PUSH1 0x3 DUP7 SWAP1 SHL SHR NOT AND PUSH1 0x1 DUP6 SWAP1 SHL OR DUP6 SSTORE PUSH2 0xD5 JUMP JUMPDEST PUSH1 0x0 DUP6 DUP2 MSTORE PUSH1 0x20 DUP2 KECCAK256 PUSH1 0x1F NOT DUP7 AND SWAP2 JUMPDEST DUP3 DUP2 LT ISZERO PUSH2 0x16F JUMPI DUP9 DUP7 ADD MLOAD DUP3 SSTORE SWAP5 DUP5 ADD SWAP5 PUSH1 0x1 SWAP1 SWAP2 ADD SWAP1 DUP5 ADD PUSH2 0x150 JUMP JUMPDEST POP DUP6 DUP3 LT ISZERO PUSH2 0x18D JUMPI DUP8 DUP6 ADD MLOAD PUSH1 0x0 NOT PUSH1 0x3 DUP9 SWAP1 SHL PUSH1 0xF8 AND SHR NOT AND DUP2 SSTORE JUMPDEST POP POP POP POP POP PUSH1 0x1 SWAP1 DUP2 SHL ADD SWAP1 SSTORE POP JUMP JUMPDEST PUSH2 0x949 DUP1 PUSH2 0x1AC PUSH1 0x0 CODECOPY PUSH1 0x0 RETURN INVALID PUSH1 0x80 PUSH1 0x40 MSTORE CALLVALUE DUP1 ISZERO PUSH2 0x10 JUMPI PUSH1 0x0 DUP1 REVERT JUMPDEST POP PUSH1 0x4 CALLDATASIZE LT PUSH2 0x4C JUMPI PUSH1 0x0 CALLDATALOAD PUSH1 0xE0 SHR DUP1 PUSH4 0x6FDDE03 EQ PUSH2 0x51 JUMPI DUP1 PUSH4 0x43953519 EQ PUSH2 0x6F JUMPI DUP1 PUSH4 0xE82D9D33 EQ PUSH2 0x86 JUMPI DUP1 PUSH4 0xF4C714B4 EQ PUSH2 0x9B JUMPI JUMPDEST PUSH1 0x0 DUP1 REVERT JUMPDEST PUSH2 0x59 PUSH2 0xC2 JUMP JUMPDEST PUSH1 0x40 MLOAD PUSH2 0x66 SWAP2 SWAP1 PUSH2 0x594 JUMP JUMPDEST PUSH1 0x40 MLOAD DUP1 SWAP2 SUB SWAP1 RETURN JUMPDEST PUSH2 0x78 PUSH1 0x1 SLOAD DUP2 JUMP JUMPDEST PUSH1 0x40 MLOAD SWAP1 DUP2 MSTORE PUSH1 0x20 ADD PUSH2 0x66 JUMP JUMPDEST PUSH2 0x99 PUSH2 0x94 CALLDATASIZE PUSH1 0x4 PUSH2 0x651 JUMP JUMPDEST PUSH2 0x150 JUMP JUMPDEST STOP JUMPDEST PUSH2 0xAE PUSH2 0xA9 CALLDATASIZE PUSH1 0x4 PUSH2 0x708 JUMP JUMPDEST PUSH2 0x2E3 JUMP JUMPDEST PUSH1 0x40 MLOAD PUSH2 0x66 SWAP9 SWAP8 SWAP7 SWAP6 SWAP5 SWAP4 SWAP3 SWAP2 SWAP1 PUSH2 0x721 JUMP JUMPDEST PUSH1 0x0 DUP1 SLOAD PUSH2 0xCF SWAP1 PUSH2 0x7A3 JUMP JUMPDEST DUP1 PUSH1 0x1F ADD PUSH1 0x20 DUP1 SWAP2 DIV MUL PUSH1 0x20 ADD PUSH1 0x40 MLOAD SWAP1 DUP2 ADD PUSH1 0x40 MSTORE DUP1 SWAP3 SWAP2 SWAP1 DUP2 DUP2 MSTORE PUSH1 0x20 ADD DUP3 DUP1 SLOAD PUSH2 0xFB SWAP1 PUSH2 0x7A3 JUMP JUMPDEST DUP1 ISZERO PUSH2 0x148 JUMPI DUP1 PUSH1 0x1F LT PUSH2 0x11D JUMPI PUSH2 0x100 DUP1 DUP4 SLOAD DIV MUL DUP4 MSTORE SWAP2 PUSH1 0x20 ADD SWAP2 PUSH2 0x148 JUMP JUMPDEST DUP3 ADD SWAP2 SWAP1 PUSH1 0x0 MSTORE PUSH1 0x20 PUSH1 0x0 KECCAK256 SWAP1 JUMPDEST DUP2 SLOAD DUP2 MSTORE SWAP1 PUSH1 0x1 ADD SWAP1 PUSH1 0x20 ADD DUP1 DUP4 GT PUSH2 0x12B JUMPI DUP3 SWAP1 SUB PUSH1 0x1F AND DUP3 ADD SWAP2 JUMPDEST POP POP POP POP POP DUP2 JUMP JUMPDEST PUSH1 0x0 DUP6 MLOAD GT PUSH2 0x15E JUMPI PUSH1 0x0 DUP1 REVERT JUMPDEST PUSH1 0x0 DUP4 MLOAD GT PUSH2 0x16C JUMPI PUSH1 0x0 DUP1 REVERT JUMPDEST PUSH1 0x0 DUP2 MLOAD GT PUSH2 0x17A JUMPI PUSH1 0x0 DUP1 REVERT JUMPDEST PUSH1 0x0 DUP3 MLOAD GT PUSH2 0x188 JUMPI PUSH1 0x0 DUP1 REVERT JUMPDEST CALLER PUSH2 0x192 JUMPI PUSH1 0x0 DUP1 REVERT JUMPDEST PUSH1 0x0 DUP5 GT PUSH2 0x19F JUMPI PUSH1 0x0 DUP1 REVERT JUMPDEST PUSH1 0x1 DUP1 SLOAD SWAP1 PUSH1 0x0 PUSH2 0x1AF DUP4 PUSH2 0x7DD JUMP JUMPDEST SWAP1 SWAP2 SSTORE POP POP PUSH1 0x40 DUP1 MLOAD PUSH2 0x100 DUP2 ADD DUP3 MSTORE PUSH1 0x1 DUP1 SLOAD DUP1 DUP4 MSTORE PUSH1 0x20 DUP1 DUP5 ADD DUP11 DUP2 MSTORE DUP5 DUP7 ADD DUP11 SWAP1 MSTORE PUSH1 0x60 DUP6 ADD DUP10 SWAP1 MSTORE PUSH1 0x80 DUP6 ADD DUP9 SWAP1 MSTORE PUSH1 0xA0 DUP6 ADD DUP8 SWAP1 MSTORE TIMESTAMP PUSH1 0xC0 DUP7 ADD MSTORE CALLER PUSH1 0xE0 DUP7 ADD MSTORE PUSH1 0x0 SWAP3 DUP4 MSTORE PUSH1 0x2 SWAP1 SWAP2 MSTORE SWAP4 SWAP1 KECCAK256 DUP3 MLOAD DUP2 SSTORE SWAP3 MLOAD SWAP2 SWAP3 SWAP2 SWAP1 DUP3 ADD SWAP1 PUSH2 0x219 SWAP1 DUP3 PUSH2 0x853 JUMP JUMPDEST POP PUSH1 0x40 DUP3 ADD MLOAD PUSH1 0x2 DUP3 ADD SSTORE PUSH1 0x60 DUP3 ADD MLOAD PUSH1 0x3 DUP3 ADD SWAP1 PUSH2 0x238 SWAP1 DUP3 PUSH2 0x853 JUMP JUMPDEST POP PUSH1 0x80 DUP3 ADD MLOAD PUSH1 0x4 DUP3 ADD SWAP1 PUSH2 0x24D SWAP1 DUP3 PUSH2 0x853 JUMP JUMPDEST POP PUSH1 0xA0 DUP3 ADD MLOAD PUSH1 0x5 DUP3 ADD SWAP1 PUSH2 0x262 SWAP1 DUP3 PUSH2 0x853 JUMP JUMPDEST POP PUSH1 0xC0 DUP3 ADD MLOAD PUSH1 0x6 DUP3 ADD SSTORE PUSH1 0xE0 SWAP1 SWAP2 ADD MLOAD PUSH1 0x7 SWAP1 SWAP2 ADD DUP1 SLOAD PUSH1 0x1 PUSH1 0x1 PUSH1 0xA0 SHL SUB NOT AND PUSH1 0x1 PUSH1 0x1 PUSH1 0xA0 SHL SUB SWAP1 SWAP3 AND SWAP2 SWAP1 SWAP2 OR SWAP1 SSTORE PUSH1 0x1 SLOAD PUSH1 0x40 MLOAD PUSH32 0x6E95BBAA37A5FDEC42A312E049DEA2FE6160EBE659214D3409B4F91F164C2F52 SWAP2 PUSH2 0x2D4 SWAP2 DUP9 SWAP1 DUP9 SWAP1 DUP9 SWAP1 DUP9 SWAP1 DUP9 SWAP1 TIMESTAMP SWAP1 CALLER SWAP1 PUSH2 0x721 JUMP JUMPDEST PUSH1 0x40 MLOAD DUP1 SWAP2 SUB SWAP1 LOG1 POP POP POP POP POP JUMP JUMPDEST PUSH1 0x2 PUSH1 0x20 MSTORE PUSH1 0x0 SWAP1 DUP2 MSTORE PUSH1 0x40 SWAP1 KECCAK256 DUP1 SLOAD PUSH1 0x1 DUP3 ADD DUP1 SLOAD SWAP2 SWAP3 SWAP2 PUSH2 0x305 SWAP1 PUSH2 0x7A3 JUMP JUMPDEST DUP1 PUSH1 0x1F ADD PUSH1 0x20 DUP1 SWAP2 DIV MUL PUSH1 0x20 ADD PUSH1 0x40 MLOAD SWAP1 DUP2 ADD PUSH1 0x40 MSTORE DUP1 SWAP3 SWAP2 SWAP1 DUP2 DUP2 MSTORE PUSH1 0x20 ADD DUP3 DUP1 SLOAD PUSH2 0x331 SWAP1 PUSH2 0x7A3 JUMP JUMPDEST DUP1 ISZERO PUSH2 0x37E JUMPI DUP1 PUSH1 0x1F LT PUSH2 0x353 JUMPI PUSH2 0x100 DUP1 DUP4 SLOAD DIV MUL DUP4 MSTORE SWAP2 PUSH1 0x20 ADD SWAP2 PUSH2 0x37E JUMP JUMPDEST DUP3 ADD SWAP2 SWAP1 PUSH1 0x0 MSTORE PUSH1 0x20 PUSH1 0x0 KECCAK256 SWAP1 JUMPDEST DUP2 SLOAD DUP2 MSTORE SWAP1 PUSH1 0x1 ADD SWAP1 PUSH1 0x20 ADD DUP1 DUP4 GT PUSH2 0x361 JUMPI DUP3 SWAP1 SUB PUSH1 0x1F AND DUP3 ADD SWAP2 JUMPDEST POP POP POP POP POP SWAP1 DUP1 PUSH1 0x2 ADD SLOAD SWAP1 DUP1 PUSH1 0x3 ADD DUP1 SLOAD PUSH2 0x399 SWAP1 PUSH2 0x7A3 JUMP JUMPDEST DUP1 PUSH1 0x1F ADD PUSH1 0x20 DUP1 SWAP2 DIV MUL PUSH1 0x20 ADD PUSH1 0x40 MLOAD SWAP1 DUP2 ADD PUSH1 0x40 MSTORE DUP1 SWAP3 SWAP2 SWAP1 DUP2 DUP2 MSTORE PUSH1 0x20 ADD DUP3 DUP1 SLOAD PUSH2 0x3C5 SWAP1 PUSH2 0x7A3 JUMP JUMPDEST DUP1 ISZERO PUSH2 0x412 JUMPI DUP1 PUSH1 0x1F LT PUSH2 0x3E7 JUMPI PUSH2 0x100 DUP1 DUP4 SLOAD DIV MUL DUP4 MSTORE SWAP2 PUSH1 0x20 ADD SWAP2 PUSH2 0x412 JUMP JUMPDEST DUP3 ADD SWAP2 SWAP1 PUSH1 0x0 MSTORE PUSH1 0x20 PUSH1 0x0 KECCAK256 SWAP1 JUMPDEST DUP2 SLOAD DUP2 MSTORE SWAP1 PUSH1 0x1 ADD SWAP1 PUSH1 0x20 ADD DUP1 DUP4 GT PUSH2 0x3F5 JUMPI DUP3 SWAP1 SUB PUSH1 0x1F AND DUP3 ADD SWAP2 JUMPDEST POP POP POP POP POP SWAP1 DUP1 PUSH1 0x4 ADD DUP1 SLOAD PUSH2 0x427 SWAP1 PUSH2 0x7A3 JUMP JUMPDEST DUP1 PUSH1 0x1F ADD PUSH1 0x20 DUP1 SWAP2 DIV MUL PUSH1 0x20 ADD PUSH1 0x40 MLOAD SWAP1 DUP2 ADD PUSH1 0x40 MSTORE DUP1 SWAP3 SWAP2 SWAP1 DUP2 DUP2 MSTORE PUSH1 0x20 ADD DUP3 DUP1 SLOAD PUSH2 0x453 SWAP1 PUSH2 0x7A3 JUMP JUMPDEST DUP1 ISZERO PUSH2 0x4A0 JUMPI DUP1 PUSH1 0x1F LT PUSH2 0x475 JUMPI PUSH2 0x100 DUP1 DUP4 SLOAD DIV MUL DUP4 MSTORE SWAP2 PUSH1 0x20 ADD SWAP2 PUSH2 0x4A0 JUMP JUMPDEST DUP3 ADD SWAP2 SWAP1 PUSH1 0x0 MSTORE PUSH1 0x20 PUSH1 0x0 KECCAK256 SWAP1 JUMPDEST DUP2 SLOAD DUP2 MSTORE SWAP1 PUSH1 0x1 ADD SWAP1 PUSH1 0x20 ADD DUP1 DUP4 GT PUSH2 0x483 JUMPI DUP3 SWAP1 SUB PUSH1 0x1F AND DUP3 ADD SWAP2 JUMPDEST POP POP POP POP POP SWAP1 DUP1 PUSH1 0x5 ADD DUP1 SLOAD PUSH2 0x4B5 SWAP1 PUSH2 0x7A3 JUMP JUMPDEST DUP1 PUSH1 0x1F ADD PUSH1 0x20 DUP1 SWAP2 DIV MUL PUSH1 0x20 ADD PUSH1 0x40 MLOAD SWAP1 DUP2 ADD PUSH1 0x40 MSTORE DUP1 SWAP3 SWAP2 SWAP1 DUP2 DUP2 MSTORE PUSH1 0x20 ADD DUP3 DUP1 SLOAD PUSH2 0x4E1 SWAP1 PUSH2 0x7A3 JUMP JUMPDEST DUP1 ISZERO PUSH2 0x52E JUMPI DUP1 PUSH1 0x1F LT PUSH2 0x503 JUMPI PUSH2 0x100 DUP1 DUP4 SLOAD DIV MUL DUP4 MSTORE SWAP2 PUSH1 0x20 ADD SWAP2 PUSH2 0x52E JUMP JUMPDEST DUP3 ADD SWAP2 SWAP1 PUSH1 0x0 MSTORE PUSH1 0x20 PUSH1 0x0 KECCAK256 SWAP1 JUMPDEST DUP2 SLOAD DUP2 MSTORE SWAP1 PUSH1 0x1 ADD SWAP1 PUSH1 0x20 ADD DUP1 DUP4 GT PUSH2 0x511 JUMPI DUP3 SWAP1 SUB PUSH1 0x1F AND DUP3 ADD SWAP2 JUMPDEST POP POP POP POP PUSH1 0x6 DUP4 ADD SLOAD PUSH1 0x7 SWAP1 SWAP4 ADD SLOAD SWAP2 SWAP3 SWAP2 PUSH1 0x1 PUSH1 0x1 PUSH1 0xA0 SHL SUB AND SWAP1 POP DUP9 JUMP JUMPDEST PUSH1 0x0 DUP2 MLOAD DUP1 DUP5 MSTORE PUSH1 0x0 JUMPDEST DUP2 DUP2 LT ISZERO PUSH2 0x574 JUMPI PUSH1 0x20 DUP2 DUP6 ADD DUP2 ADD MLOAD DUP7 DUP4 ADD DUP3 ADD MSTORE ADD PUSH2 0x558 JUMP JUMPDEST POP PUSH1 0x0 PUSH1 0x20 DUP3 DUP7 ADD ADD MSTORE PUSH1 0x20 PUSH1 0x1F NOT PUSH1 0x1F DUP4 ADD AND DUP6 ADD ADD SWAP2 POP POP SWAP3 SWAP2 POP POP JUMP JUMPDEST PUSH1 0x20 DUP2 MSTORE PUSH1 0x0 PUSH2 0x5A7 PUSH1 0x20 DUP4 ADD DUP5 PUSH2 0x54E JUMP JUMPDEST SWAP4 SWAP3 POP POP POP JUMP JUMPDEST PUSH4 0x4E487B71 PUSH1 0xE0 SHL PUSH1 0x0 MSTORE PUSH1 0x41 PUSH1 0x4 MSTORE PUSH1 0x24 PUSH1 0x0 REVERT JUMPDEST PUSH1 0x0 DUP3 PUSH1 0x1F DUP4 ADD SLT PUSH2 0x5D5 JUMPI PUSH1 0x0 DUP1 REVERT JUMPDEST DUP2 CALLDATALOAD PUSH8 0xFFFFFFFFFFFFFFFF DUP1 DUP3 GT ISZERO PUSH2 0x5F0 JUMPI PUSH2 0x5F0 PUSH2 0x5AE JUMP JUMPDEST PUSH1 0x40 MLOAD PUSH1 0x1F DUP4 ADD PUSH1 0x1F NOT SWAP1 DUP2 AND PUSH1 0x3F ADD AND DUP2 ADD SWAP1 DUP3 DUP3 GT DUP2 DUP4 LT OR ISZERO PUSH2 0x618 JUMPI PUSH2 0x618 PUSH2 0x5AE JUMP JUMPDEST DUP2 PUSH1 0x40 MSTORE DUP4 DUP2 MSTORE DUP7 PUSH1 0x20 DUP6 DUP9 ADD ADD GT ISZERO PUSH2 0x631 JUMPI PUSH1 0x0 DUP1 REVERT JUMPDEST DUP4 PUSH1 0x20 DUP8 ADD PUSH1 0x20 DUP4 ADD CALLDATACOPY PUSH1 0x0 PUSH1 0x20 DUP6 DUP4 ADD ADD MSTORE DUP1 SWAP5 POP POP POP POP POP SWAP3 SWAP2 POP POP JUMP JUMPDEST PUSH1 0x0 DUP1 PUSH1 0x0 DUP1 PUSH1 0x0 PUSH1 0xA0 DUP7 DUP9 SUB SLT ISZERO PUSH2 0x669 JUMPI PUSH1 0x0 DUP1 REVERT JUMPDEST DUP6 CALLDATALOAD PUSH8 0xFFFFFFFFFFFFFFFF DUP1 DUP3 GT ISZERO PUSH2 0x681 JUMPI PUSH1 0x0 DUP1 REVERT JUMPDEST PUSH2 0x68D DUP10 DUP4 DUP11 ADD PUSH2 0x5C4 JUMP JUMPDEST SWAP7 POP PUSH1 0x20 DUP9 ADD CALLDATALOAD SWAP6 POP PUSH1 0x40 DUP9 ADD CALLDATALOAD SWAP2 POP DUP1 DUP3 GT ISZERO PUSH2 0x6AA JUMPI PUSH1 0x0 DUP1 REVERT JUMPDEST PUSH2 0x6B6 DUP10 DUP4 DUP11 ADD PUSH2 0x5C4 JUMP JUMPDEST SWAP5 POP PUSH1 0x60 DUP9 ADD CALLDATALOAD SWAP2 POP DUP1 DUP3 GT ISZERO PUSH2 0x6CC JUMPI PUSH1 0x0 DUP1 REVERT JUMPDEST PUSH2 0x6D8 DUP10 DUP4 DUP11 ADD PUSH2 0x5C4 JUMP JUMPDEST SWAP4 POP PUSH1 0x80 DUP9 ADD CALLDATALOAD SWAP2 POP DUP1 DUP3 GT ISZERO PUSH2 0x6EE JUMPI PUSH1 0x0 DUP1 REVERT JUMPDEST POP PUSH2 0x6FB DUP9 DUP3 DUP10 ADD PUSH2 0x5C4 JUMP JUMPDEST SWAP2 POP POP SWAP3 SWAP6 POP SWAP3 SWAP6 SWAP1 SWAP4 POP JUMP JUMPDEST PUSH1 0x0 PUSH1 0x20 DUP3 DUP5 SUB SLT ISZERO PUSH2 0x71A JUMPI PUSH1 0x0 DUP1 REVERT JUMPDEST POP CALLDATALOAD SWAP2 SWAP1 POP JUMP JUMPDEST PUSH1 0x0 PUSH2 0x100 DUP11 DUP4 MSTORE DUP1 PUSH1 0x20 DUP5 ADD MSTORE PUSH2 0x73B DUP2 DUP5 ADD DUP12 PUSH2 0x54E JUMP JUMPDEST SWAP1 POP DUP9 PUSH1 0x40 DUP5 ADD MSTORE DUP3 DUP2 SUB PUSH1 0x60 DUP5 ADD MSTORE PUSH2 0x755 DUP2 DUP10 PUSH2 0x54E JUMP JUMPDEST SWAP1 POP DUP3 DUP2 SUB PUSH1 0x80 DUP5 ADD MSTORE PUSH2 0x769 DUP2 DUP9 PUSH2 0x54E JUMP JUMPDEST SWAP1 POP DUP3 DUP2 SUB PUSH1 0xA0 DUP5 ADD MSTORE PUSH2 0x77D DUP2 DUP8 PUSH2 0x54E JUMP JUMPDEST PUSH1 0xC0 DUP5 ADD SWAP6 SWAP1 SWAP6 MSTORE POP POP PUSH1 0x1 PUSH1 0x1 PUSH1 0xA0 SHL SUB SWAP2 SWAP1 SWAP2 AND PUSH1 0xE0 SWAP1 SWAP2 ADD MSTORE SWAP7 SWAP6 POP POP POP POP POP POP JUMP JUMPDEST PUSH1 0x1 DUP2 DUP2 SHR SWAP1 DUP3 AND DUP1 PUSH2 0x7B7 JUMPI PUSH1 0x7F DUP3 AND SWAP2 POP JUMPDEST PUSH1 0x20 DUP3 LT DUP2 SUB PUSH2 0x7D7 JUMPI PUSH4 0x4E487B71 PUSH1 0xE0 SHL PUSH1 0x0 MSTORE PUSH1 0x22 PUSH1 0x4 MSTORE PUSH1 0x24 PUSH1 0x0 REVERT JUMPDEST POP SWAP2 SWAP1 POP JUMP JUMPDEST PUSH1 0x0 PUSH1 0x1 DUP3 ADD PUSH2 0x7FD JUMPI PUSH4 0x4E487B71 PUSH1 0xE0 SHL PUSH1 0x0 MSTORE PUSH1 0x11 PUSH1 0x4 MSTORE PUSH1 0x24 PUSH1 0x0 REVERT JUMPDEST POP PUSH1 0x1 ADD SWAP1 JUMP JUMPDEST PUSH1 0x1F DUP3 GT ISZERO PUSH2 0x84E JUMPI PUSH1 0x0 DUP2 DUP2 MSTORE PUSH1 0x20 DUP2 KECCAK256 PUSH1 0x1F DUP6 ADD PUSH1 0x5 SHR DUP2 ADD PUSH1 0x20 DUP7 LT ISZERO PUSH2 0x82B JUMPI POP DUP1 JUMPDEST PUSH1 0x1F DUP6 ADD PUSH1 0x5 SHR DUP3 ADD SWAP2 POP JUMPDEST DUP2 DUP2 LT ISZERO PUSH2 0x84A JUMPI DUP3 DUP2 SSTORE PUSH1 0x1 ADD PUSH2 0x837 JUMP JUMPDEST POP POP POP JUMPDEST POP POP POP JUMP JUMPDEST DUP2 MLOAD PUSH8 0xFFFFFFFFFFFFFFFF DUP2 GT ISZERO PUSH2 0x86D JUMPI PUSH2 0x86D PUSH2 0x5AE JUMP JUMPDEST PUSH2 0x881 DUP2 PUSH2 0x87B DUP5 SLOAD PUSH2 0x7A3 JUMP JUMPDEST DUP5 PUSH2 0x804 JUMP JUMPDEST PUSH1 0x20 DUP1 PUSH1 0x1F DUP4 GT PUSH1 0x1 DUP2 EQ PUSH2 0x8B6 JUMPI PUSH1 0x0 DUP5 ISZERO PUSH2 0x89E JUMPI POP DUP6 DUP4 ADD MLOAD JUMPDEST PUSH1 0x0 NOT PUSH1 0x3 DUP7 SWAP1 SHL SHR NOT AND PUSH1 0x1 DUP6 SWAP1 SHL OR DUP6 SSTORE PUSH2 0x84A JUMP JUMPDEST PUSH1 0x0 DUP6 DUP2 MSTORE PUSH1 0x20 DUP2 KECCAK256 PUSH1 0x1F NOT DUP7 AND SWAP2 JUMPDEST DUP3 DUP2 LT ISZERO PUSH2 0x8E5 JUMPI DUP9 DUP7 ADD MLOAD DUP3 SSTORE SWAP5 DUP5 ADD SWAP5 PUSH1 0x1 SWAP1 SWAP2 ADD SWAP1 DUP5 ADD PUSH2 0x8C6 JUMP JUMPDEST POP DUP6 DUP3 LT ISZERO PUSH2 0x903 JUMPI DUP8 DUP6 ADD MLOAD PUSH1 0x0 NOT PUSH1 0x3 DUP9 SWAP1 SHL PUSH1 0xF8 AND SHR NOT AND DUP2 SSTORE JUMPDEST POP POP POP POP POP PUSH1 0x1 SWAP1 DUP2 SHL ADD SWAP1 SSTORE POP JUMP INVALID LOG2 PUSH5 0x6970667358 0x22 SLT KECCAK256 0xF6 0x4A SELFBALANCE SWAP16 0xE8 0x5D 0xCE DUP9 0xA9 0xC JUMPI XOR 0xD0 PUSH22 0x9350E278D2A584A12ABAB13139D3842F164F64736F6C PUSH4 0x43000812 STOP CALLER "},"methodIdentifiers":{"fileCount()":"43953519","files(uint256)":"f4c714b4","name()":"06fdde03","uploadFile(string,uint256,string,string,string)":"e82d9d33"}}}}}